:03000000020AA64B
:0C0AA600787FE4F6D8FD7581200208007E
:1008F60030313233343536373839546573742062C3
:10090600792044533138423230004572726F722179
:10091600436865636B210054656D703A0043656EEC
:0209260074005B
:0C0A9900E4FFE4FE0EBE21FC0FBF04F6DB
:010AA500222E
:020A6B00AD07D5
:0D0A6D00E4FCECC39D5006120A990C80F5C4
:010A7A002259
:100A5800C2A6D2A5D2A700000000A2879200C2A712
:020A6800A200EA
:010A6A002269
:0709A8007F05120A6B7F3886
:1009AF00120A5840FBC2A6C2A5C2A700008F800042
:0C09BF00000000D2A700000000C2A72228
:070AB200EF4480FF0209AFD1
:0609CB00EE9008F693FF18
:1009D100120A5840FBD2A6C2A5C2A78F8000000010
:0A09E10000D2A700000000C2A72208
:100957007F0F1209AA1209A81209A87F05120A6BAC
:100967007F0C1209AF7F05120A6B7F061209AF1FB2
:0D097700120A6B7F011209AF7F05020A6BA7
:10085B00D2B7E4F5080508E508B402F9C2B7E4F528
:10086B00080508E508B4C8F9D2B7E4F5080508E5AA
:10087B0008B40AF9A2B79200E4F5080508E508B434
:04088B00C8F9A20006
:01088F002246
:10092800E4FED2B700C2B7EFC313FF00D2B7E4F5B5
:10093800080508E508B402F930B7054307808000C8
:0E094800E4F5080508E508B408F90EBE08D469
:01095600227E
:10089000E4FED2B700C2B7EF1392B7E4F50805083B
:1008A000E508B40AF9D2B7E4F5080508E508B4018B
:1008B000F9EFC313FF0EBE08D9E4F5080508E508F3
:0308C000B404F984
:0108C3002212
:1009EB00E4FF120AB2E4FBEB90091093FF600B12C9
:0C09FB0009D10B7F64120A6B80ED80FEB6
:100A0700E4FF120AB2E4FBEB90090093FF600B12BC
:0A0A170009D10B7F64120A6B80ED19
:010A210022B2
:100A22007F40120AB2E4FBEB90091D93FF600B12A8
:0A0A320009D10B7F32120A6B80ED30
:010A3C002297
:0F0A7B007F49120AB27F2E1209D17F32020A6B15
:100A3D007F4C120AB2E4FBEB90092393FF600B127B
:0A0A4D0009D10B7F32120A6B80ED15
:010A5700227C
:1008C400EF75F06484FEEF75F06484E5F075F00A6A
:1008D40084FDEF75F00A84ACF07F46120AB2120967
:1008E400CBED93FF1209D1EC93FF1209D17F3202B1
:0208F4000A6B8D
:0F0A8A00AE077F4A120AB21209CB7F32020A6B03
:1009840012085B7FCC1208907F44120890E4F508AB
:100994000508E508B464F912085B7FCC1208907F5F
:0409A400BE020890F7
:100800001209577F05120A6B12085B50031209EB9D
:10081000120A07120A22120A7B120A3D12098412D6
:100820000928AB071209288F09EBC4540FFFE5090B
:10083000C454F02FFAEB540F75F00AA4FFE5F0C48E
:10084000F854F0C8EFC4540F48F9AF021208C4AF0F
:0B08500001120A8A7F0A120A6B80C1A5
:00000001FF
